:100000000C9496000C94BE000C94BE000C94BE00A0
:100010000C94BE000C94BE000C94BE000C94BE0068
:100020000C94BE000C94BE000C94EE070C945D087A
:100030000C94BE000C94BE000C94BE000C94BE0048
:100040000C94BE000C94BE000C94BE000C94BE0038
:100050000C94BE000C94BE000C94BE000C94A4073B
:100060000C94BE000C94BE000C94BE000C94BE0018
:100070000C94BE000C94BE000C94BE000C94BE0008
:100080000C94BE000C94BE000C94BE000C94BE00F8
:100090000C94BE000C94BE000C94BE000C94BE00E8
:1000A0000C94BE000C94BE000C94BE00080B000221
:1000B0000202000009040000010202000005240001
:1000C0001001052401010104240206052406000193
:1000D0000705810310004009040100020A00000026
:1000E00007050202400000070583024000000403E8
:1000F000090412010002EF02014041233780000190
:100100000102030141726475696E6F204C4C43001B
:1001100041726475696E6F204D6963726F000706E6
:1001200005040100080A0B0C0D098F0A11241FBEDB
:10013000CFEFDAE0DEBFCDBF11E0A0E0B1E0E6E94D
:10014000F3E202C005900D92AE34B107D9F722E078
:10015000AEE4B1E001C01D92AC36B207E1F710E0A9
:10016000C6E9D0E004C02197FE010E94C00FC53946
:10017000D107C9F70E94B10C0C94C9110C9400006E
:100180004F925F926F927F928F929F92AF92BF92A7
:10019000CF92DF92EF92FF920F931F93CF93DF9353
:1001A000E5010C151D052E053F050CF051C0280179
:1001B000390146015701882309F44FC0CA01DB0108
:1001C00084159505A605B70514F4D301C201B50140
:1001D000A40188159905AA05BB0514F4AC01BD015D
:1001E000C016D106E206F30664F4D501C401841BEF
:1001F000950BA60BB70BAC01BD01440D551D661D3B
:10020000771D9A01AB012419350946095709AFEF4B
:10021000BFEF0E94250FA501940124193509460955
:1002200057090E94060F2883398382E090E0DF910E
:10023000CF911F910F91FF90EF90DF90CF90BF90E3
:10024000AF909F908F907F906F905F904F900895A8
:100250002601370148015901AECF90E080E0E7CF99
:10026000E0E2F1E0E49190917B008E2F880F880FFF
:1002700080729F7D892B80937B00E770E064E09320
:100280007C0080917A00806480937A0080917A006B
:1002900086FDFCCF80917800909179000895FC0153
:1002A00080918101882311F13FB7F89482E0809317
:1002B000E9002091F200822F90E01816190614F43C
:1002C00081E090E0882339F0289A44E64093800149
:1002D0004091F1004083222339F02091F200211156
:1002E00003C02BE62093E8003FBF08958FEF9FEFF8
:1002F00008953FB7F89480917C0190917D01A09181
:100300007E01B0917F0126B5A89B05C02F3F19F053
:100310000196A11DB11D3FBFBA2FA92F982F882785
:10032000BC01CD01620F711D811D911D42E0660F60
:10033000771F881F991F4A95D1F70895CF92DF92B2
:10034000EF92FF920E9479016B017C010E9479017A
:100350006C197D098E099F09683E734081059105DE
:10036000A8F3FF90EF90DF90CF9008954091750132
:100370005091760120917301309174014217530717
:10038000B4F49091E8009570E1F39091E80092FD4B
:1003900019C08093F10080917501909176010196CA
:1003A0008F739927892B19F48EEF8093E800809141
:1003B0007501909176010196909376018093750175
:1003C00081E0089580E00895EF92FF920F931F93CC
:1003D000CF93DF93F82E192FE62E042F81E0860F9E
:1003E000880F0E94B60183E00E94B601CF2DD12F65
:1003F000EC0EFD2EF11CCE15DF05B9F007FF13C082
:10040000FE0184910E94B601182F80E00E94B6017F
:10041000812321968111EFCFDF91CF911F910F9111
:10042000FF90EF9008958881EDCF81E0F5CFDF92C6
:10043000EF92FF920F931F93CF93DF93D82E8A01F1
:10044000EB017B01E40EF51ECE15DF0559F0D7FE5A
:1004500012C0FE0184910E94B60121968111F4CF51
:100460000FEF1FEFC801DF91CF911F910F91FF9008
:10047000EF90DF9008958881EECF2FB7F8948770C2
:100480008093E9009091E800892F807295FF04C065
:100490009091F20080E4891B2FBF08957F928F9284
:1004A0009F92AF92BF92CF92DF92EF92FF920F9303
:1004B0001F93CF93DF93C82E8B017A018091810126
:1004C000811110C08FEF9FEFDF91CF911F910F919E
:1004D000FF90EF90DF90CF90BF90AF909F908F9064
:1004E0007F9008958091790180FF05C08091E000A0
:1004F00082608093E000CE2DDF2DD12C8AEFB82EC4
:100500008C2D8770982E8C2D8072882E8C2D807467
:10051000782E9AE3A92E209719F4DD2009F44EC015
:100520008C2D0E943D02811106C0BA94BB2051F26D
:100530000E949E01F0CF8C171D0611F00CF08C2F3D
:100540009FB7F8949092E9002091E80025FD02C041
:100550009FBFE1CF282F30E0C21BD30B882029F0AA
:100560008150A0F01092F100FBCFF801C7FC0AC047
:10057000815050F041914093F100FACF4491409363
:10058000F10031968150D0F7020F131FDD2021F0CA
:10059000A092E800D12CDCCF8091E80085FD07C057
:1005A000A092E800DD24D394209791F2F3CF209716
:1005B00079F6772069F2A092E800CACF5D9A84E6C6
:1005C00080937801C70180CF615030F02091F10015
:1005D000FC0120830196F8CF289A84E6809380015D
:1005E000089580916B0181110DC082E080936701B5
:1005F00084E08093680110926A011092690181E0A1
:1006000080936B0187E691E008950F931F93CF933A
:10061000DF931F92CDB7DEB782E0898342E450E0DA
:100620006CEA70E080E80E9417020E94F102DC018F
:1006300012960D911C910115110589F0D801ED91CB
:10064000FC910280F381E02DBE016F5F7F4FC801F6
:10065000099597FD04C0F80100851185ECCF8981CB
:100660000F90DF91CF911F910F910895CF93DF935A
:10067000EC0180911201882331F083E00E944E0248
:100680001816190634F081E090E09B838A8380E09D
:1006900090E0DF91CF910895CF93DF931F92CDB774
:1006A000DEB76983DC01ED91FC910280F381E02DDE
:1006B00041E050E0BE016F5F7F4F09950F90DF91E1
:1006C000CF91089583E08093E9008091F200882320
:1006D00019F08AE38093E800089583E00E943D02C8
:1006E00090E00895CF93DF931F92CDB7DEB7FC0162
:1006F0008485958597FD08C02FEF3FEF35872487C8
:100700000F90DF91CF910895CE0101960E944F0185
:10071000019719F4898190E0F3CF8FEF9FEFF0CF2D
:100720002FB7F8948091820190918301A091840168
:10073000B09185012FBF80938E0190938F01A0937C
:100740009001B093910186E891E00E94720397FFB7
:1007500026C02FB7F8948091820190918301A091D7
:100760008401B09185012FBF40918E0150918F017E
:100770006091900170919101841B950BA60BB70BB2
:1007800040918A0150918B0160918C0170918D0193
:1007900084179507A607B707B0F28FEF9FEF08956C
:1007A0000F931F93CF93DF931F92CDB7DEB78C01CA
:1007B000FC018485958597FF0BC0CE0101960E94B0
:1007C0004F01019771F4898190E0F8019587848742
:1007D000F801848595850F90DF91CF911F910F913E
:1007E00008958FEF9FEFF1CFFC018485958597FDEC
:1007F0000BC09FB7F89482E08093E9008091F200EB
:100800009FBF90E0019608959FB7F89482E080938F
:10081000E9008091F2009FBF90E00895DC01FB01A8
:1008200012962C911297848195812817190641F40C
:1008300091818081813A31F49D7F81E0913009F08E
:1008400080E008958132E1F79B3029F482811F9680
:100850008C9381E008959A3099F7828150968C9319
:10086000F8CFDC01FB0188E4808389E4818384E4A0
:1008700082831D969C911D979F709F5B93831D960D
:100880008D919C9124E0969587952A95E1F78F703C
:100890008F5B848385E00895EF92FF920F931F93FF
:1008A000CF93DF93FB012081213889F52381223208
:1008B00071F5DC0112964C912481358142171306A3
:1008C00031F58C01FC01C385D485F12CE12C2097F6
:1008D00091F04C815D816A817B818E81811180E8FC
:1008E0000E9417028F3F980759F0E80EF91E0990F1
:1008F000D881C02DECCF81E0D8011F968C93C70121
:10090000DF91CF911F910F91FF90EF90089590E0AC
:1009100080E0F6CFCF93DF93CDB7DEB769970FB600
:10092000F894DEBF0FBECDBFFC01DB018C918F5F61
:100930008C939E012D5F3F4F8DE0D9011D928A95CA
:10094000E9F729E0298384E08A8391E09D8383E0AD
:100950008E832A8721E22B879C879D879F8722E2AF
:10096000288B27E02B8B25E02C8B8E8B20E430E02E
:10097000388F2F8B998F82818B8395858685998B74
:100980008A8B838180688D8B49E150E0BE016F5F67
:100990007F4F80E00E94170269960FB6F894DEBF81
:1009A0000FBECDBFDF91CF910895CF93DF9380919C
:1009B0005F01811167C081E08093520180935301F0
:1009C00028E531E0309355012093540110925701EE
:1009D000109256012EE131E030934F0120934E01E9
:1009E00010925A011092590110925C0110925B0111
:1009F00080935D0180935E0181EC809358010E9499
:100A0000F102FC01818190915201482F490F552735
:100A1000551F483051059CF5A281B381109709F507
:100A20002EE431E033832283208120935001809390
:100A3000510180915301820F808320915401A22F94
:100A4000B09155018A2F821B8917C8F481813D918D
:100A5000C82FD0E0C050DF4F38838F5F8183F2CF43
:100A6000D90118962D913C91199721153105C1F79F
:100A70002EE431E019963C932E931897D5CF81E060
:100A800080935F018EE491E0DF91CF9108954F92C2
:100A90005F926F927F928F929F92AF92BF92CF920E
:100AA000DF92EF92FF920F931F93CF93DF93CDB717
:100AB000DEB74DB65EB6809167022DB73EB7281BF4
:100AC00031090FB6F8943EBF0FBE2DBF8DB79EB74C
:100AD00001963C0180900A02912C8091060290912F
:100AE0000702D301FC019F01281B390B281539058A
:100AF0001CF421912D93F7CF80910B02882359F19B
:100B0000809102029091030228E097FD09C068E6F7
:100B100071E00E94980F6DE270E00E94980F262FFE
:100B2000809104029091050268E097FD08C068E694
:100B300071E00E94980F6DE270E00E94980FF3013F
:100B4000E80DF91D90E1699FB0011124262B208347
:100B5000F40131964F015301A80CB91CC090120248
:100B6000D0901302E0901402F090150200910E0252
:100B700010910F0220911002309111024091D60184
:100B80005091D7016091D8017091D90180910C02E8
:100B900081700E94C000880E991E5301A80CB91CD8
:100BA000C0901A02D0901B02E0901C02F0901D022F
:100BB000009116021091170220911802309119022B
:100BC0004091DA015091DB016091DC017091DD010F
:100BD00080910C02869581700E94C000880E991E3B
:100BE0005301A80CB91CC0902202D0902302E090BF
:100BF0002402F090250200911E0210911F02209104
:100C00002002309121024091DE015091DF0160917C
:100C1000E0017091E10180910C0282FB882780F94C
:100C20000E94C000880E991E5301A80CB91CC090E8
:100C30002A02D0902B02E0902C02F0902D0200911D
:100C4000260210912702209128023091290240911A
:100C5000E2015091E3016091E4017091E50180911E
:100C60000C0283FB882780F90E94C000880E991E21
:100C70005301A80CB91CC0903202D0903302E0900E
:100C80003402F090350200912E0210912F02209133
:100C90003002309131024091E6015091E7016091BC
:100CA000E8017091E90180910C02829581700E94A7
:100CB000C000880E991E5301A80CB91CC0903A02BE
:100CC000D0903B02E0903C02F0903D020091360251
:100CD0001091370220913802309139024091EA0197
:100CE0005091EB016091EC017091ED0180910C024B
:100CF00085FB882780F90E94C000880E991E530149
:100D0000A80CB91CC0904202D0904302E09044026B
:100D1000F090450200913E0210913F022091400266
:100D2000309141024091F2015091F3016091F40140
:100D30007091F50180910D0281700E94C000880EB3
:100D4000991E5301A80CB91CC0904A02D0904B02C6
:100D5000E0904C02F0904D02009146021091470243
:100D600020914802309149024091EE015091EF01EB
:100D70006091F0017091F10180910D028695817072
:100D80000E94C000880E991E5301A80CB91CC09087
:100D90005202D0905302E0905402F090550200911C
:100DA0004E0210914F022091500230915102409119
:100DB000F6015091F7016091F8017091F90180916D
:100DC0000D0282FB882780F90E94C000880E991EC0
:100DD0005301A80CB91CC0905A02D0905B02E0905D
:100DE0005C02F0905D020091560210915702209132
:100DF0005802309159024091FA015091FB016091E3
:100E0000FC017091FD0180910D0283FB882780F920
:100E10000E94C000880D991D5301A80EB91EC090F4
:100E20006202D0906302E0906402F090650200914B
:100E30005E0210915F022091600230916102409148
:100E4000FE015091FF0160910002709101028091BA
:100E50000D02829581700E94C0000E94D5044C0151
:100E6000409167028091660250E05A01FFEFAF1A8D
:100E7000BF0A2DB73EB72A193B090FB6F8943EBFFB
:100E80000FBE2DBF0DB71EB70F5F1F4FEDB7FEB7DB
:100E90008183B301C80101960E94B011F4018381DE
:100EA000A501B80180640E944E020FB6F8945EBEA0
:100EB0000FBE4DBEDF91CF911F910F91FF90EF902C
:100EC000DF90CF90BF90AF909F908F907F906F906A
:100ED0005F904F90089580910902882361F0E0911E
:100EE0000602F091070280818E7F80838091080244
:100EF00081110C94470508950F931F93CF93DF93AF
:100F0000EC0188819981009759F02A813B8126174D
:100F1000370730F081E0DF91CF911F910F91089555
:100F20008B016F5F7F4F0E94EB10009759F0998300
:100F300088831B830A832C813D81232B59F7FC0175
:100F40001082E8CF80E0E7CF1F920F920FB60F928A
:100F500011242F933F938F939F93AF93BF938091CF
:100F6000820190918301A0918401B091850130911B
:100F70007B0123E0230F2D3758F50196A11DB11DEC
:100F800020937B018093820190938301A09384013D
:100F9000B093850180917C0190917D01A0917E01AB
:100FA000B0917F010196A11DB11D80937C019093AA
:100FB0007D01A0937E01B0937F01BF91AF919F917E
:100FC0008F913F912F910F900FBE0F901F9018950A
:100FD00026E8230F0296A11DB11DD2CF1F920F92BA
:100FE0000FB60F9211248F939F938091E1009091FF
:100FF000E100937F9093E10083FF0FC01092E9001E
:1010000091E09093EB001092EC0092E39093ED004E
:101010001092810198E09093F00082FF22C093E04B
:101020009093E9009091F200992319F09AE390933C
:10103000E80090917801992341F0909178019150C6
:1010400090937801911101C05D989091800199234E
:1010500041F090918001915090938001911101C0D5
:10106000289884FF18C08091E2008E7E8160809372
:10107000E2008091E1008F7E8093E1008091790110
:101080008E7E8061809379019F918F910F900FBE2A
:101090000F901F90189580FFF7CF8091E2008E7E11
:1010A00080618093E2008091E1008E7E8093E10078
:1010B000809179018E7E8160E5CF1F920F920FB6ED
:1010C0000F921124CF92DF92EF92FF920F931F9312
:1010D0002F933F934F935F936F937F938F939F9340
:1010E000AF93BF93EF93FF93CF93DF93CDB7DEB76B
:1010F0006C97DEBFCDBF1092E9008091E80083FFBE
:1011000025C068E0CE0145960E94E40282EF8093FC
:10111000E8008D8987FF39C09091E80090FFFCCFEF
:10112000982F907609F034C19E894F89588D2F8968
:10113000F88C911131C0803861F580917A018093EB
:10114000F1001092F1008EEF8093E8006C960FB6DC
:10115000F894DEBF0FBECDBFDF91CF91FF91EF912D
:10116000BF91AF919F918F917F916F915F914F91BF
:101170003F912F911F910F91FF90EF90DF90CF90B3
:101180000F900FBE0F901F9018959EEF9093E80060
:10119000C7CF1092F100D5CF913059F48111D3CF40
:1011A0004130510581F680917A018D7F80937A01DB
:1011B000CACF933049F48111C6CF4130510519F699
:1011C00080917A018260F2CF953041F48091E800FD
:1011D00080FFFCCF20682093E300B5CF963009F064
:1011E000A9C00B8D1C8D22E01092E90010927601AF
:1011F00010927501F2122EC01092740110927301B8
:101200000E9405031F8299E09983FA8291E09E83F0
:1012100090EA98879AEF998720917501309176012D
:10122000275F3F4F3C832B838D831092E900109200
:10123000760110927501109374010093730149E0D7
:1012400050E0BE016F5F7F4F80E00E9417020E9456
:10125000050379CF10937401009373010E94F1028A
:10126000DC0112960D911C910115110509F451C173
:10127000D801ED91FC910480F581E02DBE016B5EFB
:101280007F4FC8010995009709F03EC1F80100851C
:101290001185EACFF3E0FF120EC08F89882309F48D
:1012A00040C0823061F440E86DE080E191E00E944E
:1012B000E401811148CF81E28093EB0047CF813078
:1012C00029F440E86BE084E091E0F1CF833099F7B6
:1012D0000E94F102DC011296ED90FC908E010F5FEE
:1012E0001F4F6801E114F10479F0D701ED91FC91F1
:1012F0000680F781E02DB801C7010995080F111D7F
:10130000F701E084F184EECFD8011C92F601019040
:101310000020E9F73197BF016C197D0940E0C60153
:10132000C6CF6EEE70E0FB01449150E080E80E9471
:10133000170209CF973009F4BECF983021F481E02D
:101340008093F10000CF993009F0FDCE837009F051
:10135000B2CFE1E0F1E081E031E096E32191222398
:1013600071F08093E9003093EB00DF0111972C912D
:101370002093EC009093ED008F5F873079F78EE734
:101380008093EA001092EA008F8980938101DBCE7E
:101390008B8D9C8D1092E900109276011092750150
:1013A0009093740180937301898D811192C08E890D
:1013B0009D89913A49F4813209F07DCF47E050E0B0
:1013C0006BE071E080E0B3CF913209F074CF8332EB
:1013D00069F48F89988DB0E0A0E080930701909325
:1013E0000801A0930901B0930A01ADCE803269F4DF
:1013F0008091E80082FFFCCF67E08BE091E00E94E3
:10140000E4028BEF8093E8009ECE823209F09BCEFF
:101410008F8980931201EEEFFFE7859194918B3FC6
:101420009C4D51F1E0E0F8E080910B0190910C01AE
:10143000A0910D01B0910E01803B9440A105B10532
:10144000F1F48091120180FD1AC0EE3F8AE0F807A6
:1014500089F587E797E79183808380916000809387
:10146000770188E19BE00FB6F894A895809360001F
:101470000FBE9093600067CEEEEFFAE0D5CF80818B
:1014800091818737974709F05ECEA89580916000DB
:101490008861809360008091770180936000EE3FC7
:1014A0002AE0F20789F08091FE0A9091FF0A918369
:1014B000808349CE808191818737980751F290933C
:1014C000FF0A8093FE0AC5CF1092FF0A1092FE0A0F
:1014D0003ACE0E94F102DC0112960D911C91011589
:1014E000110509F4E8CED801ED91FC910190F0814D
:1014F000E02DBE016B5E7F4FC8010995811123CE9F
:10150000F80100851185EBCF181619060CF41BCED7
:10151000D2CEF1E0FF12BECE62EF70E004CFEF92C8
:10152000FF920F931F93CF93DF93CDB7DEB7C659CA
:10153000D1090FB6F894DEBF0FBECDBF109289015E
:101540001092880188EE93E0A0E0B0E080938A01D9
:1015500090938B01A0938C01B0938D018AE291E06E
:1015600090938701809386018FEF9FEF9093930173
:1015700080939201109207021092060210920A02C2
:1015800010920E0210920F0210921002109211028D
:101590008FEF93E0A0E0B0E08093120290931302EB
:1015A000A0931402B0931502109216021092170223
:1015B000109218021092190280931A0290931B0243
:1015C000A0931C02B0931D0210921E0210921F02E3
:1015D0001092200210922102809322029093230203
:1015E000A0932402B09325021092260210922702A3
:1015F000109228021092290280932A0290932B02C3
:10160000A0932C02B0932D0210922E0210922F0262
:101610001092300210923102809332029093330282
:10162000A0933402B0933502109236021092370222
:10163000109238021092390280933A0290933B0242
:10164000A0933C02B0933D0210923E0210923F02E2
:101650001092400210924102809342029093430202
:10166000A0934402B09345021092460210924702A2
:10167000109248021092490280934A0290934B02C2
:10168000A0934C02B0934D0210924E0210924F0262
:101690001092500210925102809352029093530282
:1016A000A0935402B0935502109256021092570222
:1016B000109258021092590280935A0290935B0242
:1016C000A0935C02B0935D0210925E0210925F02E2
:1016D0001092600210926102809362029093630202
:1016E000A0936402B093650273E07093660281E098
:1016F0008093090210920B0210920C0298E09093D2
:101700000D0295E099838A8349E04B839C83E1EA4B
:10171000ED838E8325E82F83788799874A8729E18F
:101720002B878C8729E22D878E87F5E1FF87188A22
:1017300025E2298B8A8B65E76B8B8C8B55E95D8B5A
:101740008E8B25E52F8B188E25E6298F1A8E31E892
:101750003B8F22E02C8F6D8F8E8F5F8FA7E0A8A329
:1017600039A37AA39BA32CA3FDA31EA297E29FA358
:101770009FEF98A799A71AA61BA66CA790E19DA713
:101780005EA78FA7E8AB19AA4AAB85EC8BAB3CAB45
:101790002DAB80EC8EAB8FAB87E390E00E94C60F41
:1017A0007C0187E3FE013196D70101900D928A9565
:1017B000E1F787E090E00E94C60F8C01DC011196F2
:1017C0001C921E921396FC92EE92129787E390E081
:1017D00015969C938E93149716961C920E94D5048E
:1017E000FC01A385B485109709F0A3C01487038773
:1017F00085859685D80114962D913C91820F931F73
:101800009687858790910902892F8695869586957A
:10181000977009F096C080930A0210910A02812FF6
:1018200090E0009711F481E090E00E94C60F909341
:1018300007028093060281E090910B02911101C092
:1018400080E01E5F810F809367021092D601109294
:10185000D7011092D8011092D9011092DA0110929A
:10186000DB011092DC011092DD011092DE0110927A
:10187000DF011092E0011092E1011092E20110925A
:10188000E3011092E4011092E5011092E60110923A
:10189000E7011092E8011092E9011092EA0110921A
:1018A000EB011092EC011092ED011092EE011092FA
:1018B000EF011092F0011092F1011092F2011092DA
:1018C000F3011092F4011092F5011092F6011092BA
:1018D000F7011092F8011092F9011092FA0110929A
:1018E000FB011092FC011092FD011092FE0110927A
:1018F000FF0110920002109201028FEF9FEF909370
:10190000030280930202909305028093040290E008
:1019100080E020910A0228171906A9F0A4F0E091AE
:101920000602F0910702E80FF91F10820196F1CF2D
:10193000DC018D919C9111970097D1F70D931C9329
:1019400057CF8F5F68CFCA56DF4F0FB6F894DEBF10
:101950000FBECDBFDF91CF911F910F91FF90EF9000
:101960000895CF93DF93CDB7DEB72C970FB6F894D9
:10197000DEBF0FBECDBF789484B5826084BD84B5D0
:10198000816084BD85B5826085BD85B5816085BD7A
:1019900080916E00816080936E0010928100809132
:1019A00081008260809381008091810081608093BA
:1019B00081008091800081608093800080919100FF
:1019C000826080939100809191008160809391006A
:1019D000809190008160809390008091C10084602C
:1019E0008093C1008091C10082608093C10080918A
:1019F000C10081608093C1008091C30081608093A9
:101A0000C3008091C00082608093C0008091C200BA
:101A100081608093C20080917A00846080937A0014
:101A200080917A00826080937A0080917A00816050
:101A300080937A0080917A00806880937A00109277
:101A4000810110927A01109279018091D700816012
:101A50008093D70080EA8093D80089B5806189BDE2
:101A600089B5826089BD89B5282F2170222E80FF1B
:101A7000FACF0E949E018091D8008F7C8061809374
:101A8000D8008091E000807F8093E0008091E100A9
:101A90008E7E8093E1008DE08093E200559A209A3B
:101AA0005D9828988FEF9FEF909393018093920118
:101AB00081E0809308020E9447051092560210921E
:101AC0005702109258021092590284E091E0A0E06F
:101AD000B0E080935A0290935B02A0935C02B093B3
:101AE0005D023324339488E4482E55245A94652C9F
:101AF000752C90E0892E90E0992E86E891E00E9466
:101B0000F403892B09F4B5C018861F821A8619863A
:101B10001C861B8670E060E0CE0107960E947C0761
:101B20002F81388581112EC02115310519F0C90189
:101B30000E94621018861F821C861B861A861986D0
:101B40000E94900397FD26C08A30910519F1898380
:101B50001A820B851C850F5F1F4FB801CE010796B7
:101B60000E947C07882361F32F8138858B859C85B3
:101B7000BE016F5F7F4F820F931F0E94C2111C87AF
:101B80000B87DECF1C861B866CE471E0C9010E94C6
:101B9000C211D6CFCF80D884C114D10439F00B85BF
:101BA0001C8576010115110509F092C01A8219826F
:101BB0001C821B821E821D826BE070E0CE010196AA
:101BC0000E947C0729813A818111B8C02115310515
:101BD00019F0C9010E9462101A8219821E821D82A8
:101BE0001C821B828B859C85C980DA802D813E8179
:101BF00082179307E9F4892B09F4F6C00F81188541
:101C00005601F80181918F01882309F4EDC0082E57
:101C1000000C990B0E94A8117C01F50181915F01D4
:101C2000082E000C990B0E94A811E816F90649F33A
:101C3000C114D10409F48CC010E0C6010E946210E6
:101C4000112309F485C045E050E064E471E086E8C2
:101C500091E00E94360342E050E06AE471E086E8D9
:101C600091E00E9436038F819885009711F00E94C1
:101C700062100E943001883493400CF48EC00E94A0
:101C80003001813094400CF08BC00E9430019C01E7
:101C9000990F440B550B345041095109A4E0B1E0B0
:101CA0000E94250FA30192010E94060F609113016B
:101CB00061118DC0203531050CF075C00E946B0795
:101CC0008114910409F419CF0E94000016CF750108
:101CD00057018FEFA81AB80AF7018081082E000C6F
:101CE000990B0E94FA0E892B91F7015011090C0DE6
:101CF0001D1DF8018081082E000C990B0E94FA0E20
:101D0000892B31F00E151F0518F001501109F1CF84
:101D10000F5F1F4FA8014E195F095C874B87CE14D8
:101D2000DF0420F4B701C6010E94B011EF81F885ED
:101D30008B859C85E80FF91F108238CF8BE090E0EF
:101D40009E838D8368E371E0C9010E94C2114ACF6E
:101D50008B859C85892B09F486CF68E471E08F819F
:101D600098850E94B911892B09F07DCF80911301CC
:101D70008325809313010E946B071092FA01109241
:101D8000FB011092FC011092FD0180910802882352
:101D900009F469CF0E94470566CF88E493E077CFC6
:101DA00080E094E074CF80910902882309F488CF01
:101DB000E0910602F091070280818160808380912A
:101DC0000802882309F47CCF0E94470579CF032EAF
:101DD000000C440B550B2093FA013093FB01409308
:101DE000FC015093FD01EBCF122DC114D10409F079
:101DF00024CF29CF91110C94030F803219F0895010
:101E00008550C8F70895992788270895052E97FBD0
:101E10001EF400940E941D0F57FD07D00E94670F0B
:101E200007FC03D04EF40C941D0F5095409530954F
:101E300021953F4F4F4F5F4F089590958095709536
:101E400061957F4F8F4F9F4F08950E94890FA59FE7
:101E5000900DB49F900DA49F800D911D11240895A5
:101E60002F923F924F925F926F927F928F929F92AA
:101E7000AF92BF92CF92DF92EF92FF920F931F9398
:101E8000CF93DF93CDB7DEB7CA1BDB0B0FB6F89449
:101E9000DEBF0FBECDBF09942A88398848885F8489
:101EA0006E847D848C849B84AA84B984C884DF80FA
:101EB000EE80FD800C811B81AA81B981CE0FD11DDE
:101EC0000FB6F894DEBF0FBECDBFED010895A1E2BD
:101ED0001A2EAA1BBB1BFD010DC0AA1FBB1FEE1FA4
:101EE000FF1FA217B307E407F50720F0A21BB30BEF
:101EF000E40BF50B661F771F881F991F1A9469F76B
:101F000060957095809590959B01AC01BD01CF01C6
:101F10000895A29FB001B39FC001A39F700D811DC2
:101F20001124911DB29F700D811D1124911D0895E2
:101F300097FB072E16F4009407D077FD09D00E9476
:101F4000AC0F07FC05D03EF4909581959F4F089506
:101F5000709561957F4F0895AA1BBB1B51E107C087
:101F6000AA1FBB1FA617B70710F0A61BB70B881F29
:101F7000991F5A95A9F780959095BC01CD010895B8
:101F8000EE0FFF1F0590F491E02D09940F931F931E
:101F9000CF93DF938230910510F482E090E0E091DE
:101FA0006A02F0916B0230E020E0B0E0A0E03097F0
:101FB00099F42115310509F44AC0281B390B243046
:101FC0003105D8F58A819B816115710589F1FB0185
:101FD00093838283FE0111C040815181028113816C
:101FE00048175907E0F04817590799F4109761F01E
:101FF00012960C93129713961C933296CF01DF9191
:10200000CF911F910F91089500936A0210936B0274
:10201000F4CF2115310551F04217530738F0A901CB
:10202000DB019A01BD01DF01F801C1CFEF01F9CF5A
:1020300090936B0280936A02CDCFFE01E20FF31FF3
:10204000819391932250310939832883D7CF2091EE
:10205000680230916902232B41F4209116013091DE
:102060001701309369022093680220911401309186
:1020700015012115310541F42DB73EB740911801E6
:1020800050911901241B350BE0916802F09169020F
:10209000E217F307A0F42E1B3F0B2817390778F03F
:1020A000AC014E5F5F4F2417350748F04E0F5F1F9E
:1020B0005093690240936802819391939FCFF0E01F
:1020C000E0E09CCFCF93DF930097E9F0FC013297DB
:1020D00013821282A0916A02B0916B02ED0130E08E
:1020E00020E01097A1F420813181820F931F20916D
:1020F0006802309169022817390709F061C0F0932E
:102100006902E0936802DF91CF910895EA01CE174A
:10211000DF07E8F54A815B819E0141155105B1F762
:10212000E901FB83EA8349915991C40FD51FEC174C
:10213000FD0761F4808191810296840F951FE9016A
:1021400099838883828193819B838A83F0E0E0E096
:1021500012968D919C9113970097B9F52D913C9112
:102160001197CD010296820F931F20916802309142
:1021700069022817390739F6309751F510926B022A
:1021800010926A02B0936902A0936802BCCFD38315
:10219000C28340815181840F951FC817D90761F40C
:1021A0004E5F5F4F88819981480F591F518340834B
:1021B0008A819B81938382832115310509F0B0CFF9
:1021C000F0936B02E0936A029ECFFD01DC01C0CF69
:1021D00013821282D7CFB0E0A0E0E1EFF0E10C94DF
:1021E000320F8C01009751F4CB010E94C60F8C0175
:1021F000C801CDB7DEB7E0E10C944E0FFC01E60F4D
:10220000F71F9C0122503109E217F30708F49DC023
:10221000D901CD91DC911197C617D70798F0C53039
:10222000D10530F3CE0104978617970708F3C61B34
:10223000D70B2297C193D1936D937C93CF010E94CA
:102240006210D6CF5B01AC1ABD0A4C018C0E9D1EEC
:10225000A0916A02B0916B02512C412CF12CE12C1F
:10226000109731F58091680290916902881599055F
:1022700009F05CC04616570608F058C0809114015A
:1022800090911501009741F48DB79EB740911801C8
:1022900050911901841B950BE817F90708F055C0F8
:1022A000F0936902E0936802F90171836083A0CF23
:1022B0008D919C91119712966C90129713967C9029
:1022C0001397A815B90559F56C0142E0C40ED11C4D
:1022D000CA14DB0420F1AC014A195B09DA01129639
:1022E000159780F06282738251834083D9016D9388
:1022F0007C93E114F10471F0D7011396FC93EE93F3
:10230000129776CF22968C0F9D1FF90191838083BF
:10231000F301EFCFF0936B02E0936A0269CF4816A6
:10232000590608F42C017D01D3019ACFCB010E94FC
:10233000C60F7C01009749F0AE01B8010E94B011B0
:10234000C8010E946210870153CF10E000E050CF17
:102350009111089581548A5108F4805E855A089538
:10236000FB01DC0102C001900D9241505040D8F7B2
:102370000895FB01DC018D91019080190110D9F3C2
:10238000990B0895FB01DC0101900D920020E1F70B
:062390000895F894FFCF50
:1023960000C18081000000FFFFFFFF00E100000098
:1023A6000000000100006C028000000000000E0426
:1023B6008A044C043104000000004C0336036D030C
:1023C6006203F4037203D0034745542056657273C3
:0E23D600696F6E00312E302E31000D0A0000AE
:00000001FF
